{
  "contracts/Counter.sol": {
    "Counter": {
      "abi": [
        {
          "inputs": [],
          "stateMutability": "nonpayable",
          "type": "constructor"
        },
        {
          "anonymous": false,
          "inputs": [
            {
              "indexed": false,
              "internalType": "int256",
              "name": "newCount",
              "type": "int256"
            },
            {
              "indexed": false,
              "internalType": "address",
              "name": "changedBy",
              "type": "address"
            }
          ],
          "name": "CountChanged",
          "type": "event"
        },
        {
          "inputs": [],
          "name": "count",
          "outputs": [
            {
              "internalType": "int256",
              "name": "",
              "type": "int256"
            }
          ],
          "stateMutability": "view",
          "type": "function"
        },
        {
          "inputs": [],
          "name": "decrement",
          "outputs": [],
          "stateMutability": "nonpayable",
          "type": "function"
        },
        {
          "inputs": [],
          "name": "getCount",
          "outputs": [
            {
              "internalType": "int256",
              "name": "",
              "type": "int256"
            }
          ],
          "stateMutability": "view",
          "type": "function"
        },
        {
          "inputs": [],
          "name": "increment",
          "outputs": [],
          "stateMutability": "nonpayable",
          "type": "function"
        },
        {
          "inputs": [],
          "name": "owner",
          "outputs": [
            {
              "internalType": "address",
              "name": "",
              "type": "address"
            }
          ],
          "stateMutability": "view",
          "type": "function"
        },
        {
          "inputs": [],
          "name": "reset",
          "outputs": [],
          "stateMutability": "nonpayable",
          "type": "function"
        }
      ],
      "evm": {
        "bytecode": {
          "linkReferences": {},
          "object": "6080604052348015600f57600080fd5b5033600160006101000a81548173ffffffffffffffffffffffffffffffffffffffff021916908373ffffffffffffffffffffffffffffffffffffffff160217905550600080819055506103ae806100676000396000f3fe608060405234801561001057600080fd5b50600436106100625760003560e01c806306661abd146100675780632baeceb7146100855780638da5cb5b1461008f578063a87d942c146100ad578063d09de08a146100cb578063d826f88f146100d5575b600080fd5b61006f6100df565b60405161007c9190610219565b60405180910390f35b61008d6100e5565b005b610097610139565b6040516100a49190610275565b60405180910390f35b6100b561015f565b6040516100c29190610219565b60405180910390f35b6100d3610168565b005b6100dd6101bc565b005b60005481565b6000808154809291906100f7906102bf565b91905055507f9d9688791f365c95a5a552c44132651ace3f6b29b9a4cb5cbbbfe5debe43e0bd6000543360405161012f929190610307565b60405180910390a1565b600160009054906101000a900473ffffffffffffffffffffffffffffffffffffffff1681565b60008054905090565b60008081548092919061017a90610330565b91905055507f9d9688791f365c95a5a552c44132651ace3f6b29b9a4cb5cbbbfe5debe43e0bd600054336040516101b2929190610307565b60405180910390a1565b600080819055507f9d9688791f365c95a5a552c44132651ace3f6b29b9a4cb5cbbbfe5debe43e0bd600054336040516101f6929190610307565b60405180910390a1565b6000819050919050565b61021381610200565b82525050565b600060208201905061022e600083018461020a565b92915050565b600073ffffffffffffffffffffffffffffffffffffffff82169050919050565b600061025f82610234565b9050919050565b61026f81610254565b82525050565b600060208201905061028a6000830184610266565b92915050565b7f4e487b7100000000000000000000000000000000000000000000000000000000600052601160045260246000fd5b60006102ca82610200565b91507f800000000000000000000000000000000000000000000000000000000000000082036102fc576102fb610290565b5b600182039050919050565b600060408201905061031c600083018561020a565b6103296020830184610266565b9392505050565b600061033b82610200565b91507f7fffffffffffffffffffffffffffffffffffffffffffffffffffffffffffffff820361036d5761036c610290565b5b60018201905091905056fea2646970667358221220c97c07ede190a04895c3dde6c0a4e6021c442b6f049618204e5dbfc1ed655ea364736f6c634300081a0033",
          "opcodes": "PUSH1 0x80 PUSH1 0x40 MSTORE CALLVALUE DUP1 ISZERO PUSH1 0xF JUMPI PUSH1 0x0 DUP1 REVERT JUMPDEST POP CALLER PUSH1 0x1 PUSH1 0x0 PUSH2 0x100 EXP DUP2 SLOAD DUP2 PUSH20 0xFFFFFFFFFFFFFFFFFFFFFFFFFFFFFFFFFFFFFFFF MUL NOT AND SWAP1 DUP4 PUSH20 0xFFFFFFFFFFFFFFFFFFFFFFFFFFFFFFFFFFFFFFFF AND MUL OR SWAP1 SSTORE POP PUSH1 0x0 DUP1 DUP2 SWAP1 SSTORE POP PUSH2 0x3AE DUP1 PUSH2 0x67 PUSH1 0x0 CODECOPY PUSH1 0x0 RETURN INVALID PUSH1 0x80 PUSH1 0x40 MSTORE CALLVALUE DUP1 ISZERO PUSH2 0x10 JUMPI PUSH1 0x0 DUP1 REVERT JUMPDEST POP PUSH1 0x4 CALLDATASIZE LT PUSH2 0x62 JUMPI PUSH1 0x0 CALLDATALOAD PUSH1 0xE0 SHR DUP1 PUSH4 0x6661ABD EQ PUSH2 0x67 JUMPI DUP1 PUSH4 0x2BAECEB7 EQ PUSH2 0x85 JUMPI DUP1 PUSH4 0x8DA5CB5B EQ PUSH2 0x8F JUMPI DUP1 PUSH4 0xA87D942C EQ PUSH2 0xAD JUMPI DUP1 PUSH4 0xD09DE08A EQ PUSH2 0xCB JUMPI DUP1 PUSH4 0xD826F88F EQ PUSH2 0xD5 JUMPI JUMPDEST PUSH1 0x0 DUP1 REVERT JUMPDEST PUSH2 0x6F PUSH2 0xDF JUMP JUMPDEST PUSH1 0x40 MLOAD PUSH2 0x7C SWAP2 SWAP1 PUSH2 0x219 JUMP JUMPDEST PUSH1 0x40 MLOAD DUP1 SWAP2 SUB SWAP1 RETURN JUMPDEST PUSH2 0x8D PUSH2 0xE5 JUMP JUMPDEST STOP JUMPDEST PUSH2 0x97 PUSH2 0x139 JUMP JUMPDEST PUSH1 0x40 MLOAD PUSH2 0xA4 SWAP2 SWAP1 PUSH2 0x275 JUMP JUMPDEST PUSH1 0x40 MLOAD DUP1 SWAP2 SUB SWAP1 RETURN JUMPDEST PUSH2 0xB5 PUSH2 0x15F JUMP JUMPDEST PUSH1 0x40 MLOAD PUSH2 0xC2 SWAP2 SWAP1 PUSH2 0x219 JUMP JUMPDEST PUSH1 0x40 MLOAD DUP1 SWAP2 SUB SWAP1 RETURN JUMPDEST PUSH2 0xD3 PUSH2 0x168 JUMP JUMPDEST STOP JUMPDEST PUSH2 0xDD PUSH2 0x1BC JUMP JUMPDEST STOP JUMPDEST PUSH1 0x0 SLOAD DUP2 JUMP JUMPDEST PUSH1 0x0 DUP1 DUP2 SLOAD DUP1 SWAP3 SWAP2 SWAP1 PUSH2 0xF7 SWAP1 PUSH2 0x2BF JUMP JUMPDEST SWAP2 SWAP1 POP SSTORE POP PUSH32 0x9D9688791F365C95A5A552C44132651ACE3F6B29B9A4CB5CBBBFE5DEBE43E0BD PUSH1 0x0 SLOAD CALLER PUSH1 0x40 MLOAD PUSH2 0x12F SWAP3 SWAP2 SWAP1 PUSH2 0x307 JUMP JUMPDEST PUSH1 0x40 MLOAD DUP1 SWAP2 SUB SWAP1 LOG1 JUMP JUMPDEST PUSH1 0x1 PUSH1 0x0 SWAP1 SLOAD SWAP1 PUSH2 0x100 EXP SWAP1 DIV PUSH20 0xFFFFFFFFFFFFFFFFFFFFFFFFFFFFFFFFFFFFFFFF AND DUP2 JUMP JUMPDEST PUSH1 0x0 DUP1 SLOAD SWAP1 POP SWAP1 JUMP JUMPDEST PUSH1 0x0 DUP1 DUP2 SLOAD DUP1 SWAP3 SWAP2 SWAP1 PUSH2 0x17A SWAP1 PUSH2 0x330 JUMP JUMPDEST SWAP2 SWAP1 POP SSTORE POP PUSH32 0x9D9688791F365C95A5A552C44132651ACE3F6B29B9A4CB5CBBBFE5DEBE43E0BD PUSH1 0x0 SLOAD CALLER PUSH1 0x40 MLOAD PUSH2 0x1B2 SWAP3 SWAP2 SWAP1 PUSH2 0x307 JUMP JUMPDEST PUSH1 0x40 MLOAD DUP1 SWAP2 SUB SWAP1 LOG1 JUMP JUMPDEST PUSH1 0x0 DUP1 DUP2 SWAP1 SSTORE POP PUSH32 0x9D9688791F365C95A5A552C44132651ACE3F6B29B9A4CB5CBBBFE5DEBE43E0BD PUSH1 0x0 SLOAD CALLER PUSH1 0x40 MLOAD PUSH2 0x1F6 SWAP3 SWAP2 SWAP1 PUSH2 0x307 JUMP JUMPDEST PUSH1 0x40 MLOAD DUP1 SWAP2 SUB SWAP1 LOG1 JUMP JUMPDEST PUSH1 0x0 DUP2 SWAP1 POP SWAP2 SWAP1 POP JUMP JUMPDEST PUSH2 0x213 DUP2 PUSH2 0x200 JUMP JUMPDEST DUP3 MSTORE POP POP JUMP JUMPDEST PUSH1 0x0 PUSH1 0x20 DUP3 ADD SWAP1 POP PUSH2 0x22E PUSH1 0x0 DUP4 ADD DUP5 PUSH2 0x20A JUMP JUMPDEST SWAP3 SWAP2 POP POP JUMP JUMPDEST PUSH1 0x0 PUSH20 0xFFFFFFFFFFFFFFFFFFFFFFFFFFFFFFFFFFFFFFFF DUP3 AND SWAP1 POP SWAP2 SWAP1 POP JUMP JUMPDEST PUSH1 0x0 PUSH2 0x25F DUP3 PUSH2 0x234 JUMP JUMPDEST SWAP1 POP SWAP2 SWAP1 POP JUMP JUMPDEST PUSH2 0x26F DUP2 PUSH2 0x254 JUMP JUMPDEST DUP3 MSTORE POP POP JUMP JUMPDEST PUSH1 0x0 PUSH1 0x20 DUP3 ADD SWAP1 POP PUSH2 0x28A PUSH1 0x0 DUP4 ADD DUP5 PUSH2 0x266 JUMP JUMPDEST SWAP3 SWAP2 POP POP JUMP JUMPDEST PUSH32 0x4E487B7100000000000000000000000000000000000000000000000000000000 PUSH1 0x0 MSTORE PUSH1 0x11 PUSH1 0x4 MSTORE PUSH1 0x24 PUSH1 0x0 REVERT JUMPDEST PUSH1 0x0 PUSH2 0x2CA DUP3 PUSH2 0x200 JUMP JUMPDEST SWAP2 POP PUSH32 0x8000000000000000000000000000000000000000000000000000000000000000 DUP3 SUB PUSH2 0x2FC JUMPI PUSH2 0x2FB PUSH2 0x290 JUMP JUMPDEST JUMPDEST PUSH1 0x1 DUP3 SUB SWAP1 POP SWAP2 SWAP1 POP JUMP JUMPDEST PUSH1 0x0 PUSH1 0x40 DUP3 ADD SWAP1 POP PUSH2 0x31C PUSH1 0x0 DUP4 ADD DUP6 PUSH2 0x20A JUMP JUMPDEST PUSH2 0x329 PUSH1 0x20 DUP4 ADD DUP5 PUSH2 0x266 JUMP JUMPDEST SWAP4 SWAP3 POP POP POP JUMP JUMPDEST PUSH1 0x0 PUSH2 0x33B DUP3 PUSH2 0x200 JUMP JUMPDEST SWAP2 POP PUSH32 0x7FFFFFFFFFFFFFFFFFFFFFFFFFFFFFFFFFFFFFFFFFFFFFFFFFFFFFFFFFFFFFFF DUP3 SUB PUSH2 0x36D JUMPI PUSH2 0x36C PUSH2 0x290 JUMP JUMPDEST JUMPDEST PUSH1 0x1 DUP3 ADD SWAP1 POP SWAP2 SWAP1 POP JUMP INVALID LOG2 PUSH5 0x6970667358 0x22 SLT KECCAK256 0xC9 PUSH29 0x7EDE190A04895C3DDE6C0A4E6021C442B6F049618204E5DBFC1ED655E LOG3 PUSH5 0x736F6C6343 STOP ADDMOD BYTE STOP CALLER "
        },
        "methodIdentifiers": {
          "count()": "06661abd",
          "decrement()": "2baeceb7",
          "getCount()": "a87d942c",
          "increment()": "d09de08a",
          "owner()": "8da5cb5b",
          "reset()": "d826f88f"
        }
      }
    }
  }
}