{
  "_format": "hh-sol-artifact-1",
  "contractName": "People",
  "sourceName": "contracts/People.sol",
  "abi": [
    {
      "inputs": [
        {
          "internalType": "string",
          "name": "_name",
          "type": "string"
        },
        {
          "internalType": "uint8",
          "name": "_age",
          "type": "uint8"
        }
      ],
      "name": "createPerson",
      "outputs": [],
      "stateMutability": "nonpayable",
      "type": "function"
    },
    {
      "inputs": [],
      "name": "getPeople",
      "outputs": [
        {
          "components": [
            {
              "internalType": "string",
              "name": "name",
              "type": "string"
            },
            {
              "internalType": "uint8",
              "name": "age",
              "type": "uint8"
            }
          ],
          "internalType": "struct People.Person[]",
          "name": "",
          "type": "tuple[]"
        }
      ],
      "stateMutability": "view",
      "type": "function"
    },
    {
      "inputs": [
        {
          "internalType": "uint256",
          "name": "index",
          "type": "uint256"
        }
      ],
      "name": "getPerson",
      "outputs": [
        {
          "components": [
            {
              "internalType": "string",
              "name": "name",
              "type": "string"
            },
            {
              "internalType": "uint8",
              "name": "age",
              "type": "uint8"
            }
          ],
          "internalType": "struct People.Person",
          "name": "",
          "type": "tuple"
        }
      ],
      "stateMutability": "view",
      "type": "function"
    }
  ],
  "bytecode": "0x6080604052348015600f57600080fd5b50610a878061001f6000396000f3fe608060405234801561001057600080fd5b50600436106100415760003560e01c8063246982c4146100465780634f995d08146100765780637313e8dd14610094575b600080fd5b610060600480360381019061005b91906103cb565b6100b0565b60405161006d91906104e1565b60405180910390f35b61007e61019b565b60405161008b9190610602565b60405180910390f35b6100ae60048036038101906100a991906106b5565b6102a9565b005b6100b861036e565b600082815481106100cc576100cb610715565b5b90600052602060002090600202016040518060400160405290816000820180546100f590610773565b80601f016020809104026020016040519081016040528092919081815260200182805461012190610773565b801561016e5780601f106101435761010080835404028352916020019161016e565b820191906000526020600020905b81548152906001019060200180831161015157829003601f168201915b505050505081526020016001820160009054906101000a900460ff1660ff1660ff16815250509050919050565b60606000805480602002602001604051908101604052809291908181526020016000905b828210156102a057838290600052602060002090600202016040518060400160405290816000820180546101f290610773565b80601f016020809104026020016040519081016040528092919081815260200182805461021e90610773565b801561026b5780601f106102405761010080835404028352916020019161026b565b820191906000526020600020905b81548152906001019060200180831161024e57829003601f168201915b505050505081526020016001820160009054906101000a900460ff1660ff1660ff1681525050815260200190600101906101bf565b50505050905090565b6000604051806040016040528085858080601f016020809104026020016040519081016040528093929190818152602001838380828437600081840152601f19601f8201169050808301925050505050505081526020018360ff1681525090806001815401808255809150506001900390600052602060002090600202016000909190919091506000820151816000019081610345919061097f565b5060208201518160010160006101000a81548160ff021916908360ff1602179055505050505050565b604051806040016040528060608152602001600060ff1681525090565b600080fd5b600080fd5b6000819050919050565b6103a881610395565b81146103b357600080fd5b50565b6000813590506103c58161039f565b92915050565b6000602082840312156103e1576103e061038b565b5b60006103ef848285016103b6565b91505092915050565b600081519050919050565b600082825260208201905092915050565b60005b83811015610432578082015181840152602081019050610417565b60008484015250505050565b6000601f19601f8301169050919050565b600061045a826103f8565b6104648185610403565b9350610474818560208601610414565b61047d8161043e565b840191505092915050565b600060ff82169050919050565b61049e81610488565b82525050565b600060408301600083015184820360008601526104c1828261044f565b91505060208301516104d66020860182610495565b508091505092915050565b600060208201905081810360008301526104fb81846104a4565b905092915050565b600081519050919050565b600082825260208201905092915050565b6000819050602082019050919050565b6000604083016000830151848203600086015261054c828261044f565b91505060208301516105616020860182610495565b508091505092915050565b6000610578838361052f565b905092915050565b6000602082019050919050565b600061059882610503565b6105a2818561050e565b9350836020820285016105b48561051f565b8060005b858110156105f057848403895281516105d1858261056c565b94506105dc83610580565b925060208a019950506001810190506105b8565b50829750879550505050505092915050565b6000602082019050818103600083015261061c818461058d565b905092915050565b600080fd5b600080fd5b600080fd5b60008083601f84011261064957610648610624565b5b8235905067ffffffffffffffff81111561066657610665610629565b5b6020830191508360018202830111156106825761068161062e565b5b9250929050565b61069281610488565b811461069d57600080fd5b50565b6000813590506106af81610689565b92915050565b6000806000604084860312156106ce576106cd61038b565b5b600084013567ffffffffffffffff8111156106ec576106eb610390565b5b6106f886828701610633565b9350935050602061070b868287016106a0565b9150509250925092565b7f4e487b7100000000000000000000000000000000000000000000000000000000600052603260045260246000fd5b7f4e487b7100000000000000000000000000000000000000000000000000000000600052602260045260246000fd5b6000600282049050600182168061078b57607f821691505b60208210810361079e5761079d610744565b5b50919050565b7f4e487b7100000000000000000000000000000000000000000000000000000000600052604160045260246000fd5b60008190508160005260206000209050919050565b60006020601f8301049050919050565b600082821b905092915050565b6000600883026108357fffffffffffffffffffffffffffffffffffffffffffffffffffffffffffffffff826107f8565b61083f86836107f8565b95508019841693508086168417925050509392505050565b6000819050919050565b600061087c61087761087284610395565b610857565b610395565b9050919050565b6000819050919050565b61089683610861565b6108aa6108a282610883565b848454610805565b825550505050565b600090565b6108bf6108b2565b6108ca81848461088d565b505050565b5b818110156108ee576108e36000826108b7565b6001810190506108d0565b5050565b601f82111561093357610904816107d3565b61090d846107e8565b8101602085101561091c578190505b610930610928856107e8565b8301826108cf565b50505b505050565b600082821c905092915050565b600061095660001984600802610938565b1980831691505092915050565b600061096f8383610945565b9150826002028217905092915050565b610988826103f8565b67ffffffffffffffff8111156109a1576109a06107a4565b5b6109ab8254610773565b6109b68282856108f2565b600060209050601f8311600181146109e957600084156109d7578287015190505b6109e18582610963565b865550610a49565b601f1984166109f7866107d3565b60005b82811015610a1f578489015182556001820191506020850194506020810190506109fa565b86831015610a3c5784890151610a38601f891682610945565b8355505b6001600288020188555050505b50505050505056fea26469706673582212201a52bacb3f6004822375bea9c483231babb8cc2295b10c930f0e6f22b27074c764736f6c634300081a0033",
  "linkReferences": {},
  "deployedLinkReferences": {}
}